:020000040800F2
:10000000D021002045010008911F0008931F00081F
:10001000971F00089B1F00089F1F0008000000009A
:10002000000000000000000000000000A31F000806
:10003000A51F0008000000004F6C0008A71F000863
:100040005F0100085F0100085F0100085F01000810
:100050005F0100085F0100085F0100085F01000800
:100060005F0100085F0100085F0100085F010008F0
:100070005F0100085F0100085F0100085F010008E0
:100080005F0100085F0100085F0100085F010008D0
:100090005F0100085F0100085F0100085F010008C0
:1000A0005F0100085F0100085F0100085F010008B0
:1000B0005F0100085F0100085F0100085F010008A0
:1000C0005F0100085F0100085F0100085F01000890
:1000D0005F0100085F0100085F0100085F01000880
:1000E0005F0100085F0100085F0100085F01000870
:1000F0005F0100085F0100085F0100085F01000860
:100100005F0100085F0100085F0100085F0100084F
:100110005F0100085F0100085F0100085F0100083F
:100120005F0100085F0100085F0100085F0100082F
:10013000DFF80CD008F038FA00480047351F0008F7
:10014000D02100200648804706480047FEE7FEE72A
:10015000FEE7FEE7FEE7FEE7FEE7FEE7FEE7FEE777
:1001600045020008310100080CB500200190009004
:100170006B48006840F480306949086000BF6848F7
:10018000006800F4003000900198401C0190009835
:1001900018B90198B0F5A06FF1D16148006810F46A
:1001A000003F02D00120009001E000200090009864
:1001B000012842D15B48006840F0100059490860AE
:1001C0000846006820F0030008600846006840F018
:1001D000020008605248406851494860084640683B
:1001E00048600846406840F48060486008464068BF
:1001F00020F47C1048600846406840F4E8104860ED
:100200000846006840F08070086000BF44480068FD
:1002100010F0007FFAD04248406820F003004049C7
:1002200048600846406840F00200486000BF3C4813
:10023000406800F00C000828F9D10CBD10B5FFF79C
:1002400093FF10BD10B53648006840F001003449F6
:10025000086008464068344908403149486008460B
:100260000068324908402E4908600846006820F4BA
:10027000802008600846406820F4FE0048604FF483
:100280001F008860FFF7DAFF4FF000602849086020
:1002900010BD10B5002100200022214B5B6803F047
:1002A0000C0121B1042906D0082928D107E0214BEF
:1002B000214C236027E01F4B1F4C236023E0184B89
:1002C0005B6803F47010164B5B6803F48032022302
:1002D00003EB904022B9194B4343174C23600DE0C8
:1002E0000F4B5B6813F4003F04D0144B4343124C94
:1002F000236003E00F4B43430F4C236003E00D4B9F
:100300000D4C236000BF00BF054B5B68C3F30313B4
:100310000B4CE15C084B1B68CB40074C236010BDC5
:1003200000100240002002400000FFF8FFFFF6FE30
:1003300008ED00E000127A000000002000093D00F6
:100340000400002031490143314A1160704770B503
:10035000002100230F22C4780CB32D4C246804F430
:10036000E064C4F5E064210AC1F10403CA404478A2
:1003700004FA03F18478144021430901254C0678DE
:10038000A155047804F01F050124AC4005786D11D7
:100390004FF0E02606EB8505C5F8004109E004783A
:1003A00004F01F050124AC401B4D0678761145F87A
:1003B000264070BD194A0A400243154B1B1F1A60A4
:1003C000704739B1124A121D12680243104B1B1DAF
:1003D0001A6006E00E4A121D126882430C4B1B1D68
:1003E0001A607047042808D14FF0E021096941F0F4
:1003F00004014FF0E022116107E04FF0E0210969AC
:1004000021F004014FF0E022116170470000FA056D
:100410000CED00E000E400E080E100E080FFFF1F61
:1004200001460020FE4A106800F0380008431060C2
:100430007047FB49096821F00801F94A116011462B
:100440000968014311607047F549096821F01001FE
:10045000F34A116011460968014311607047F14881
:10046000EF494860F04848607047EE48EC49486002
:10047000ED4848607047EA48006940F08000E8496C
:1004800008617047E648006940F08000E44908616F
:1004900070470420E249C96811F0010F01D0012022
:1004A0000EE0DF49C96811F0040F01D0022007E017
:1004B000DB49C96811F0100F01D0032000E00420CF
:1004C000704700B502460423FFF7E3FF034603E04D
:1004D000FFF7DFFF0346521E012B01D1002AF7D19F
:1004E00002B90523184600BD30B5044604254FF473
:1004F0003020FFF7E6FF0546042D17D1C8480069F4
:1005000040F00200C649086108464461006940F0B5
:10051000400008614FF43020FFF7D3FF0546C04884
:10052000006941F6FD710840BD490861284630BDAB
:1005300010B504244FF43020FFF7C3FF0446042C09
:1005400016D1B748006940F00400B5490861084673
:10055000006940F0400008614FF43020FFF7B1FF20
:100560000446AF48006941F6FB710840AC49086198
:10057000204610BD00B502460423FFF78AFF03465C
:1005800003E0FFF786FF0346521E012B01D1002A2C
:10059000F7D102B90523184600BD10B504244FF465
:1005A0003020FFF7E7FF0446042C16D19C48006971
:1005B00040F004009A4908610846006940F0400094
:1005C00008614FF43020FFF7D5FF044694480069D6
:1005D00041F6FB71084092490861204610BD002099
:1005E0008F49C96911F0020F01D0012000E00020FD
:1005F000704730B5A5250424FFF7F1FF00B10025B1
:100600004FF43020FFF75DFF0446042C3AD18548B3
:1006100083498860844888600846006940F020006B
:1006200008610846006940F0400008614FF430203E
:10063000FFF747FF0446042C1BD17948006941F6B7
:10064000DF710840764908610846006940F01000F3
:10065000086176480580E002FFF733FF0446052C69
:1006600010D06F48006941F6EF7108406C4908618D
:1006700008E0052C06D06A48006941F6EF71084091
:1006800067490861204630BD78B506460C4604250A
:1006900000200090E802FFF714FF0546042D24D146
:1006A0005F48006940F001005D4908613480E8025C
:1006B000FFF707FF0546042D10D1B01C0090200C59
:1006C00000990880E802FFF7FCFE054654480069DF
:1006D00041F6FE7108405249086106E05048006941
:1006E00041F6FE7108404E490861284678BD70B554
:1006F00004460D460426F002FFF7E3FE0646042EEC
:1007000011D14748006940F0010045490861258042
:10071000F002FFF7D6FE06464148006941F6FE7139
:1007200008403F490861304670BD70B505460E4629
:100730000424E002FFF7C5FE0446042C17D1394813
:1007400037498860384888600846006940F01000E2
:1007500008612E80E002FFF7B4FE0446052C06D0A7
:100760002F48006941F6EF7108402D490861204685
:1007700070BD2DE9F04304464FF6FF763746B0468C
:10078000B1460425E443E6B2C4F30727C4F307489F
:100790004FEA1469E802FFF794FE0546042D49D19B
:1007A00020481F498860204888600846006940F05A
:1007B00010000861FF2E06D01C4808300680E802B1
:1007C000FFF77FFE0546042D08D1FF2F06D01748FE
:1007D0000A300780E802FFF774FE0546042D0AD1AF
:1007E000B8F1FF0F07D011480C30A0F80080E802E4
:1007F000FFF767FE0546042D0AD1B9F1FF0F07D0B8
:100800000A480E30A0F80090E802FFF75AFE0546AD
:10081000052D0FD00248006941F6EF71084007E04E
:100820000020024023016745AB89EFCD00F8FF1F90
:10083000664908612846BDE8F08330B505460424C2
:100840004FF43020FFF73DFE0446042C41D16048B0
:100850005E4988605F4888600846006940F0200073
:1008600008610846006940F0400008614FF43020FC
:10087000FFF727FE0446042C22D15448006941F6B4
:10088000DF710840514908610846006940F01000D6
:1008900008611DB100205049088002E0A5204E49A2
:1008A00008804FF43020FFF70CFE0446052C10D0D2
:1008B0004648006941F6EF7108404449086108E084
:1008C000052C06D04148006941F6DF7108403F49D8
:1008D0000861204630BDF0B505460E461746042493
:1008E0003B483A4988603B488860E002FFF7E9FDF1
:1008F0000446042C19D13548006940F010003349F2
:10090000086147F0F800304328433349891C0880C8
:10091000E002FFF7D6FD0446052C06D02B480069FF
:1009200041F6EF710840294908612046F0BD27488B
:10093000C069800870472548006A70470020234935
:10094000096811F0200F01D0012000E0002070475D
:1009500029B11E4A126902431C4B1A6104E01B4A6A
:1009600012698243194B1A61704701460020012920
:1009700008D1164AD26912F0010F01D0012008E017
:10098000002006E0114AD2680A4201D0012000E0AE
:10099000002070470D49C860704704200B49C968A2
:1009A00011F0010F01D001200EE00849C96811F0D3
:1009B000040F01D0022007E00449C96811F0100FAC
:1009C00001D0032000E00420704700000020024016
:1009D00023016745AB89EFCD00F8FF1F10B5044632
:1009E000CA48844208D10121042000F047FB0021BD
:1009F000042000F043FB46E0C548844208D10121B1
:100A0000082000F03BFB0021082000F037FB3AE013
:100A1000C048844208D10121102000F02FFB0021A2
:100A2000102000F02BFB2EE0BB48844208D10121AE
:100A3000202000F023FB0021202000F01FFB22E0FB
:100A4000B648844208D10121402000F017FB002164
:100A5000402000F013FB16E0B148844208D1012188
:100A6000802000F00BFB0021802000F007FB0AE053
:100A7000AC48844207D10121801500F0FFFA002123
:100A8000A01500F0FBFA10BD10B50121084600F0DA
:100A9000F5FA0021012000F0F1FA10BD2DE9F04136
:100AA000024600250026002000230024002791F89C
:100AB00003C00CF00F0591F803C01CF0100F03D019
:100AC00091F802C04CEA050591F800C0BCF1000F96
:100AD00031D0146800202BE04FF0010C0CFA00F329
:100AE000B1F800C00CEA03069E4220D183004FF00B
:100AF0000F0C0CFA03F7BC4305FA03FC4CEA0404A0
:100B000091F803C0BCF1280F06D14FF0010C0CFA8C
:100B100000FCC2F814C00AE091F803C0BCF1480F11
:100B200005D14FF0010C0CFA00FCC2F810C0401CBB
:100B30000828D1D31460B1F800C0BCF1FF0F34DD38
:100B4000546800202EE000F1080C4FF0010808FA6C
:100B50000CF3B1F800C00CEA03069E4221D18300D9
:100B60004FF00F0C0CFA03F7BC4305FA03FC4CEAF8
:100B7000040491F803C0BCF1280F05D100F1080C62
:100B800008FA0CF8C2F8148091F803C0BCF1480FC1
:100B900007D100F1080C4FF0010808FA0CF8C2F870
:100BA0001080401C0828CED35460BDE8F0814FF679
:100BB000FF710180022181700421C17070470246DB
:100BC000002093680B4201D0012000E00020704714
:100BD0000146886880B2704702460020D3680B4205
:100BE00001D0012000E0002070470146C86880B2B3
:100BF000704701617047416170470AB1016100E0CF
:100C000041617047C16070474FF480320A4382618E
:100C10008161826182698269704702460020424B8D
:100C200018684FF68073184040EA021008433E4BA4
:100C3000186070473D49C8617047F0B50A46002307
:100C400000240021002500F00046B6F1004F02D13B
:100C5000354EF16901E0344E7168C0F3034583B24B
:100C600000F44016B6F5401F08D121F070612E4EF9
:100C7000766826F070662C4F7E6012E000F48016D5
:100C8000B6F5801F06D1032606FA05F4A14341F00C
:100C9000706106E0460D360103FA06F6B14341F0F5
:100CA000706122B1460D360103FA06F6314300F0B9
:100CB0000046B6F1004F02D11B4EF16101E01A4E21
:100CC0007160F0BD30B500228B071C0F0F2303FAB3
:100CD00004F2154B08338C1053F824309343124C14
:100CE00008348D1044F8253023468C1053F82430F6
:100CF0008C07240F00FA04F423430B4C08348D10A6
:100D000044F8253030BD0A490860704700080140AA
:100D1000000C014000100140001401400018014087
:100D2000001C014000200140000001400000204262
:100D3000DC0020420E49086070470D49486070474A
:100D40000B49886070474AF6AA2009490860704735
:100D50004CF6CC4006490860704701460020044A22
:100D6000D2680A4201D0012000E000207047000054
:100D700000300040DD48006840F00100DB490860B9
:100D800008464068DA490840D84948600846006883
:100D9000D8490840D54908600846006820F48020FA
:100DA00008600846406820F4FE0048604FF41F00C9
:100DB00088607047CD49096821F48031CB4A1160C1
:100DC0001146096821F480211160B0F5803F03D0FD
:100DD000B0F5802F0ED106E0C449096841F4803196
:100DE000C24A116007E0C149096841F4A021BF4A25
:100DF000116000E000BF00BF704710B5014600223F
:100E0000002300204A11012A02D1B84C236806E0D1
:100E1000022A02D1B54C236A01E0B44C636A01F0A6
:100E20001F02012494401C4201D0012000E0002058
:100E300010BD38B5002000900024002500BF3120EF
:100E4000FFF7DBFF05460098401C00900098B0F5C6
:100E5000A06F01D0002DF2D03120FFF7CEFF08B1F6
:100E6000012400E00024204638BD014600209F4AAE
:100E7000106820F0F80040EAC100106070479E49F9
:100E80000860704702460020984B586820F47C1098
:100E900042EA01031843954B58607047964908662B
:100EA000704701460020914A506820F00300084333
:100EB000506070478D48406800F00C007047014654
:100EC00000208A4A506820F0F000084350607047C4
:100ED00001460020854A506820F4E06008435060D5
:100EE000704701460020814A506820F4605040EA73
:100EF000C1005060704729B17C4A527A02437B4B53
:100F00005A7204E0794A527A8243784B5A72704797
:100F10007A490860704701460020744A506820F4FE
:100F200040400843506070470021754A11706F4A75
:100F300082F82010012802D0042808D103E0012102
:100F40006F4A117004E005216D4A117000E000BF86
:100F500000BF70476B49086070476449096A0143E4
:100F6000624A11627047674944390860704730B57A
:100F700000210022002400235C4D6D6805F00C0167
:100F800021B1042905D0082923D105E05E4D056073
:100F900022E05D4D05601FE0544D6D6805F4701250
:100FA000524D6D6805F48034022505EB92421CB960
:100FB000564D554305600BE04C4D6D6815F4003FF0
:100FC00003D0524D5543056002E04F4D5543056037
:100FD00002E04D4D056000BF00BF444D6D6805F057
:100FE000F00109094A4D6B5C0568DD4045603F4DE5
:100FF0006D6805F4E061090A454D6B5C4568DD40AC
:1010000085603A4D6D6805F46051C90A404D6B5CCE
:101010004568DD40C560354D6D6805F44041890B7C
:101020003C4D6B5CC568B5FBF3F5056130BD29B17E
:101030002E4A526902432D4B5A6104E02B4A5269F1
:1010400082432A4B5A61704729B1284A9269024368
:10105000264B9A6104E0254A92698243234B9A61A8
:10106000704729B1214AD2690243204BDA6104E07A
:101070001E4AD26982431D4BDA61704729B11B4A6F
:10108000D2680243194BDA6004E0184AD2688243FE
:10109000164BDA60704729B1144A12690243134BA8
:1010A0001A6104E0114A12698243104B1A617047B9
:1010B00014494039086070470F49C86470470B49AC
:1010C000C87170470948406A40F08070074948621B
:1010D000704701460020054A92680A4201D001206B
:1010E00000E00020704701498872704700100240FC
:1010F0000000FFF8FFFFF6FE00004242D800424227
:10110000201002408004424200127A0000093D0093
:10111000140000202400002010B50446FE4884423C
:1011200008D10121C014FFF7A9FF0021E014FFF747
:10113000A5FFC4E0B4F1804F08D101210846FFF7B4
:10114000AAFF00210120FFF7A6FFB8E0F348844280
:1011500008D101210220FFF79EFF00210220FFF7A6
:101160009AFFACE0EE48844208D101210420FFF749
:1011700092FF00210420FFF78EFFA0E0E94884429F
:1011800008D101210820FFF786FF00210820FFF782
:1011900082FF94E0E448844208D101211020FFF747
:1011A0007AFF00211020FFF776FF88E0DF488442B5
:1011B00008D101212020FFF76EFF00212020FFF73A
:1011C0006AFF7CE0DA48844208D101214014FFF72D
:1011D00055FF00216014FFF751FF70E0D5488442AD
:1011E00009D10121C804FFF749FF00214FF4002075
:1011F000FFF744FF63E0D048844209D1012108058C
:10120000FFF73CFF00214FF48010FFF737FF56E057
:10121000CA48844209D101214805FFF72FFF002168
:101220004FF40010FFF72AFF49E0C548844208D177
:1012300001214020FFF72FFF00214020FFF72BFF67
:101240003DE0C048844208D101218020FFF723FF00
:1012500000218020FFF71FFF31E0BB48844208D106
:1012600001218015FFF717FF0021A015FFF713FFDD
:1012700025E0B648844209D101210804FFF7FEFEAB
:1012800000214FF48030FFF7F9FE18E0B0488442A7
:1012900009D101214804FFF7F1FE00214FF400308D
:1012A000FFF7ECFE0BE0AB48844208D10121880433
:1012B000FFF7E4FE00214FF48020FFF7DFFE10BDB2
:1012C00000220288944B98420ED0994B98420BD042
:1012D000B0F1804F08D0914B984205D0904B984286
:1012E00002D0904B984204D14FF68F731A404B882E
:1012F0001A438D4B984207D08C4B984204D04FF63E
:10130000FF431A40CB881A4302808B8883850B8861
:101310000385814B98420BD0854B984208D08B4B6C
:10132000984205D08A4B984202D08A4B984201D10C
:101330000B7A038601238382704770B50024002254
:101340000023058C4FF6FE7635400584028C838899
:10135000048B4FF68F752C40B51E2C400D882C4306
:10136000751E2A400D892A434D882A436A4DA8429A
:101370000BD06F4DA84208D0744DA84205D0744DD3
:10138000A84202D0734DA84213D14FF6F7752A40F8
:101390004D892A434FF6FB752A408D882A434FF624
:1013A000FF652B404FF6FF552B408D892B43CD8990
:1013B0002B4383800483CD888586028470BD70B5FD
:1013C000002400220023058C4FF6EF76354005847B
:1013D000028C8388048B48F6FF752C404FF6FF453E
:1013E0002C400D884FF6FF7606EA05252C434FF674
:1013F000DF752A400D8906EA05152A434D8806EA5D
:1014000005152A43444DA84202D0494DA8421DD19A
:101410004FF67F752A404D894FF6FF7606EA05158F
:101420002A434FF6BF752A408D8806EA05152A43E0
:101430004FF6FF352B404FF2FF752B408D8906EAA2
:1014400085052B43CD8906EA85052B4383800483DC
:10145000CD880587028470BD70B50024002200236A
:10146000058C4FF6FF6635400584028C8388848B9B
:101470004FF68F752C404FF6FC752C400D882C4391
:101480004FF6FF552A400D894FF6FF7606EA0525EF
:101490002A434D8806EA05252A431F4DA84202D05B
:1014A000234DA8421DD14FF2FF752A404D894FF6BA
:1014B000FF7606EA05252A434FF6FF352A408D8838
:1014C00006EA05252A434EF6FF752B404DF6FF75BB
:1014D0002B408D8906EA05152B43CD8906EA0515B3
:1014E0002B4383808483CD888587028470BD70B54B
:1014F000002200230024058C4EF6FF76354005843B
:10150000038C8488828B48F6FF752A404FF6FF458E
:101510002A400D8820E00000002C0140000400401B
:1015200000080040000C0040001000400014004083
:1015300000340140004C0140005001400054014083
:1015400000180040001C0040002000400040014006
:1015500000440140004801404FF6FF7606EA0525A9
:101560002A434DF6FF752B400D8906EA05352B43BE
:101570004D8806EA05352B43FA4DA84202D0FA4DB4
:10158000A84208D14BF6FF752C408D894FF6FF76A7
:1015900006EA85152C4384808283CD88A0F84050CC
:1015A000038470BD828B4FF2FF331A408283828B9B
:1015B0004FF6FF7303EA01231A4382837047F0B5A5
:1015C0000C461546002200210026078C4EF6FF7CB3
:1015D00007EA0C070784828B018C4FF6FF7707EA36
:1015E000043640F6FF473A404FF6FF7707EA0527F3
:1015F0003A434FF6FF7707EA03373A43D94FB842E9
:101600000ED0D94FB8420BD0B0F1804F08D0D74F91
:10161000B84205D0D64FB84202D0D64FB84206D114
:101620004DF6FF77394046F48057394305E047F6D9
:10163000FF57394044F48057394382830184F0BD19
:10164000828B4FF6F3731A408283828B0A43828324
:101650007047F0B50C461546002200210026078C85
:101660004FF6FF6C07EA0C070784828B018C4FF65C
:10167000FF7707EA04264FF60C773A404FF6FF77DC
:1016800007EA03172F433A43B64FB8420ED0B64F7E
:10169000B8420BD0B0F1804F08D0B44FB84205D05B
:1016A000B34FB84202D0B34FB84206D14FF6FF57FE
:1016B000394046F48077394305E04FF2FF5739400F
:1016C00044F48077394382830184F0BD028B4FF26A
:1016D000FF331A400283028B4FF6FF7303EA0123A4
:1016E0001A4302837047F0B50C46154600220021CC
:1016F0000026078C4FF6EF7C07EA0C070784028B65
:10170000018C4FF6FF7707EA041640F6FF473A4090
:101710004FF6FF7707EA03373A434FF6FF7707EABA
:1017200005273A438F4FB8420ED08F4FB8420BD0A7
:10173000B0F1804F08D08D4FB84205D08C4FB842E1
:1017400002D08C4FB84206D14FF6DF77394046F0D1
:101750001007394305E04FF65F77394044F0100732
:10176000394302830184F0BD028B4FF6F3731A40B4
:101770000283028B0A4302837047F0B50C4615467C
:1017800000220021068C4FF6FE773E400684028B35
:10179000018C4FF60C7632407E1C06EA03162E436F
:1017A0003243704EB0420ED06F4EB0420BD0B0F10B
:1017B000804F08D06D4EB04205D06D4EB04202D081
:1017C0006C4EB04206D14FF6FD76314044F0010632
:1017D000314305E04FF6F576314044F001063143E0
:1017E00002830184F0BD70B505460C465D48854214
:1017F0000ED05D4885420BD0B5F1804F08D05B48D4
:10180000854205D05A48854202D05A48854200D1C7
:1018100000E000BF208850B92389A288618828464B
:10182000FFF7ABFFE1882846FFF79EFF25E0208801
:1018300004280AD12389A28861882846FFF753FF2C
:10184000E1882846FFF742FF17E0208808280AD1E0
:101850002389A28861882846FFF7FBFEE188284695
:10186000FFF7EEFE09E02389A28861882846FFF78A
:10187000A6FEE1882846FFF795FE70BD2DE9F041F0
:1018800005460C4600260127608808B9022600E0BC
:101890000026A088012801D1022700E00127208826
:1018A000A0B92389A28861882846FFF766FFE188EE
:1018B0002846FFF759FF23893A4631462846FFF765
:1018C00012FFE1882846FFF701FF13E02389A28871
:1018D00061882846FFF707FFE1882846FFF7F6FEF4
:1018E00023893A4631462846FFF747FFE1882846D4
:1018F000FFF73AFFBDE8F0810A884B881A438B88CE
:101900001A43CB881A430B891A434B891A438B8994
:101910001A43A0F8442070474FF6FF7181800021E0
:101920000180C180418001727047002101804180A7
:101930008180C180018141818181C1817047002105
:1019400001804180012181800021C1800181704797
:101950000021018041808180C1800181418181819C
:1019600070470000002C014000340140000400409A
:1019700000080040000C004021B1028842F0010242
:10198000028004E002884FF6FE731A40028070471E
:1019900031B1B0F8442042F40042A0F8442005E000
:1019A000B0F84420C2F30E02A0F8442070471AB1E8
:1019B00083890B43838102E083898B438381704752
:1019C0008182704741EA0203A0F8483070471AB19B
:1019D00083890B43838102E083898B438381704732
:1019E00001894FF6F8721140018170470A460021C3
:1019F00001894FF68F73194011430181704730B54B
:101A000004460D4629462046FFF7F0FF208940F0A6
:101A10000700208130BD2DE9F04104460D461646F1
:101A20001F46602D06D13B46012231462046FFF776
:101A30005AFE05E03B46012231462046FFF79DFE57
:101A400029462046FFF7D2FF208940F00700208179
:101A5000BDE8F08130B50C4600210189C9B24FF6CE
:101A6000FF7505EA0325154325432943018130BD50
:101A70002DE9F04105460E46174698460024434698
:101A80003A4631462846FFF7E5FF2C894FF6F870B5
:101A9000044044F007044FF68F70044044F0700493
:101AA0002C81BDE8F081F0B504460D4616461F4670
:101AB0003B46324629462046FFF7CCFF208940F4BA
:101AC00080402081F0BD0185828270470A46002156
:101AD00001884FF68F731940114301807047F0B5AC
:101AE0000C4615461E460021002200230189028B68
:101AF000038C4FF6F877394021434FF6FC473A40C4
:101B000040F201173A434FF6DD773B404FF6FF773F
:101B100007EA06172F433B43018102830384F0BD8C
:101B20000A460021018B4FF68F7319401143018340
:101B300070470A460021018B48F6FF7319404FF6A3
:101B4000FF7303EA02231943018370470A46002109
:101B5000818B4FF68F7319401143818370470A467A
:101B60000021818B48F6FF7319404FF6FF7303EA9B
:101B7000022319438183704721B1028842F0800219
:101B8000028004E002884FF67F731A40028070479B
:101B900021B1828842F00402828004E082884FF6FC
:101BA000FB731A408280704721B1828842F008029C
:101BB000828004E082884FF6F7731A408280704773
:101BC00021B1828842F00102828004E082884FF6CF
:101BD000FE731A40828070470A460021018B4FF63F
:101BE000F77319401143018370470A460021018BA6
:101BF0004FF2FF7319404FF6FF7303EA02231943B4
:101C0000018370470A460021818B4FF6F773194014
:101C10001143818370470A460021818B4FF2FF7385
:101C200019404FF6FF7303EA02231943818370477B
:101C30000A460021018B4FF6FB73194011430183C3
:101C400070470A460021018B4FF6FF3319404FF6CB
:101C5000FF7303EA02231943018370470A460021F8
:101C6000818B4FF6FB7319401143818370470A46FD
:101C70000021818B4FF6FF3319404FF6FF7303EAC3
:101C800002231943818370470A460021018B4FF6D6
:101C90007F7319401143018370470A460021018B6D
:101CA000C1F30E014FF6FF7303EA022319430183C8
:101CB00070470A460021818B4FF67F73194011430C
:101CC000818370470A460021818BC1F30E014FF6D4
:101CD000FF7303EA02231943818370470A460021F8
:101CE000018C4FF6FD7319401143018470470A4679
:101CF0000021018C4FF6F77319401143018470479E
:101D00000A460021018C4FF6DF7319404FF6FF732E
:101D100003EA02131943018470470A460021018C2B
:101D20004FF67F7319404FF6FF7303EA021319430E
:101D3000018470470A460021018C4FF6FF53194079
:101D40004FF6FF7303EA02231943018470470A46E2
:101D50000021018C4FF2FF7319404FF6FF7303EA25
:101D600002231943018470470A460021018C4DF675
:101D7000FF7319404FF6FF7303EA023319430184DE
:101D8000704730B5002301248C40A3B2048C9C43DF
:101D90000484048C02FA01F5ADB22C43048430BDF6
:101DA00030B5002304248C40A3B2048C9C430484EB
:101DB000048C02FA01F5ADB22C43048430BD70B539
:101DC0000346002000241846183001258D40ACB28F
:101DD0001D8CA5431D8409B1082909D100EB6100C0
:101DE000056825F0700505600568154305600EE07F
:101DF0000D1FC5F34E052844056825F4E045056030
:101E000005684FF6FF7606EA02263543056070BD89
:101E100021B1028842F00202028004E002884FF6FB
:101E2000FD731A400280704721B1028842F004021B
:101E3000028004E002884FF6FB731A40028070476C
:101E400021B1828842F08002828004E082884FF6CD
:101E50007F731A408280704702884FF6F7731A40EA
:101E6000028002880A430280704782884FF68F738F
:101E70001A40828082880A438280704702894FF626
:101E8000F8731A40028102890A430281704702896D
:101E90004FF67F731A40028102890A43028170471C
:101EA00081847047818570478186704701877047BC
:101EB00081877047A0F84010704702884FF6FF43B3
:101EC0001A40028002880A43028070470146888EC9
:101ED00070470146088F70470146888F704701465A
:101EE000B1F8400070470146888C70470146088D64
:101EF000704702460020138A0B4201D0012000E007
:101F000000207047CA430282704730B50246002065
:101F100000230024158A05EA0103958905EA0104D6
:101F200013B10CB1012000E0002030BDCA43028291
:101F30007047000000B58BB001F0ADFD0AA801F0BC
:101F4000A1FE0AA8032100220592CDE906210890EE
:101F5000104650210822094BCDE90132CDE903108A
:101F600003200023064A07A10090084803F008FA5E
:101F70000AA802F0C1F800200BB000BD2009002023
:101F8000A33800085374617274557000A8080020CB
:101F9000704700BFFEE700BFFEE700BFFEE700BFDF
:101FA000FEE77047704710B501F0BDFE04F01BFE60
:101FB00001F0CAFE10BD000070B5044608252902D4
:101FC000FE48FEF718FE2021FC48FEF714FE16E03E
:101FD00014F0800F04D08021F848FEF70AFE03E0D9
:101FE0008021F648FEF707FE2021F448FEF701FEA7
:101FF00000BF2021F148FEF7FEFD6006040E280018
:10200000A5F10101CDB2E3D170BD70B504460D4616
:1020100005F1B001C8B2FFF7CFFF102141EA14105B
:10202000FFF7CAFF04F00F00FFF7C6FF70BD70B5E1
:10203000044608252902E148FEF7DBFD00BF202108
:10204000DE48FEF7D8FD00BF16E014F0800F04D084
:102050008021DA48FEF7CDFD03E08021D748FEF766
:10206000CAFD2021D548FEF7C4FD00BF2021D3487A
:10207000FEF7C1FD6006040E2800A5F10101CDB2F6
:10208000E3D170BD70B50646002415E004F1B0013F
:10209000C8B2FFF791FF0120FFF78EFF1020FFF776
:1020A0008BFF002504E03046FFF7C1FF681CC5B276
:1020B000802DF8DB601CC4B2082CE7DB70BD09E0A2
:1020C00048F2462100BF0A00A1F1010399B2FAD1FA
:1020D000421E90B20028F3D1704708B501210420B8
:1020E000FEF7B2FF4FF41A60ADF8000003208DF840
:1020F000020010208DF803006946B048FEF7CEFCC0
:102100004FF40061AD48FEF774FD2021AB48FEF7A7
:1021100070FD4FF48071A948FEF76DFD3220FFF786
:10212000CEFF4FF48071A548FEF763FDAE20FFF7A8
:1021300043FF0020FFF740FF1020FFF73DFF402046
:10214000FFF73AFF8120FFF737FFCF20FFF734FF7B
:10215000A120FFF731FFC820FFF72EFFA620FFF7D1
:102160002BFFA820FFF728FF3F20FFF725FFD320F4
:10217000FFF722FF0020FFF71FFFD520FFF71CFF0E
:102180008020FFF719FFD920FFF716FFF120FFF796
:1021900013FFDA20FFF710FF1220FFF70DFFDB20FF
:1021A000FFF70AFF4020FFF707FF2020FFF704FF9B
:1021B0000220FFF701FF8D20FFF7FEFE1420FFF73E
:1021C000FBFEA420FFF7F8FEA620FFF7F5FEAF20E8
:1021D000FFF7F2FE0020FFF755FF00210846FFF74A
:1021E00014FF08BD70B5002415E004F1B001C8B2B9
:1021F000FFF7E2FE0120FFF7DFFE1020FFF7DCFE15
:10220000002504E00020FFF712FF681CC5B2802DF6
:10221000F8DB601CC4B2082CE7DB70BD70B5054666
:102220000C4621462846FFF7F0FE2046E11704EB56
:102230005171C910A4EBC10201219140CEB2B0216D
:1022400001EBE401C8B2FFF7B7FE102141EA151017
:10225000FFF7B2FE05F00F00FFF7AEFE3046FFF7C6
:10226000E6FE70BD2DE9F04707460C4690461D4638
:10227000DDF820A0E1103846FFF7C7FE3E4613E028
:10228000A146E11704EB5171C910A4EBC102012171
:102290009140C8B2FFF7CBFEBAF1010F02D1322054
:1022A000FFF70DFF701CC6B24645E9DDE910384660
:1022B000FFF7ABFE3E4613E0A946E91705EB517167
:1022C000C910A5EBC10201219140C8B2FFF7AFFED2
:1022D000BAF1010F02D10520FFF7F1FE701CC6B262
:1022E0004645E9DDBDE8F0872DE9F047044688461C
:1022F00015464FF000090026002720E0E85D203851
:1023000000F0FF097E2C04DD002408F1010000F03C
:10231000FF0841462046FFF778FE002609E009EB5A
:102320004901274A02EB4101885DFFF780FE701CDE
:10233000C6B2062EF3DBA01DC4B2781CC7B2E85D9E
:102340000028DBD1BDE8F0872DE9F04706460F46AF
:10235000904600250024A14638E018F809002038EE
:10236000C5B2782E02DD0026781CC7B23946304649
:10237000FFF74BFE002407E004EB0511114A505C07
:10238000FFF755FE601CC4B2082CF5DB781CC1B207
:102390003046FFF73AFE002408E004EB051108314F
:1023A000084A505CFFF743FE601CC4B2082CF4DB03
:1023B00006F10800C6B209F1010005E0000801407D
:1023C0001C8F00086193000800F0FF0918F809004D
:1023D0000028C2D1BDE8F0872DE9F04781460F46BD
:1023E00090460024002601256DE00024012513E01D
:1023F000FE48005D18F8061088420BD1FB49601CAE
:10240000095C701C18F80000814203D1C4EBC400C1
:10241000450005E0A01CC4B2F448005D7F28E7DC5D
:1024200000BFB9F1760F03DD4FF00009781CC7B289
:1024300039464846FFF7E9FD012D21D03946484687
:10244000FFF7E3FD002407E0E949485DFFF7EFFDF2
:10245000681C85B2601CC4B20E2CF5DB781CC1B2BE
:102460004846FFF7D2FD002407E0E149485DFFF749
:10247000DEFD681C85B2601CC4B20E2CF5DB1CE0CE
:10248000701CC6B239464846FFF7BFFD002404E081
:102490000020FFF7CCFD601CC4B2102CF8DB781CC8
:1024A000C1B24846FFF7B1FD002404E00020FFF769
:1024B000BEFD601CC4B2102CF8DB09F10E0000F068
:1024C000FF09B01CC6B218F8060000288DD1BDE87F
:1024D000F087F8B506460F461546002427E0285D2C
:1024E0007F2814DD285D8DF80000601C285C8DF8C5
:1024F000010000208DF802006A4639463046FFF799
:102500006BFF06F10E00C6B2A01CC4B20FE0285D3E
:102510008DF8000000208DF801006A4639463046EB
:10252000FFF712FF06F10800C6B2601CC4B2285DB6
:102530000028D4D1F8BD2DE9F04706460F46904655
:102540001C46DDF82090E11704EB5171C910B4EB83
:10255000C10106D12046E11704EB5171C1F3C70553
:1025600006E02046E11704EB5171C910491CCDB2B9
:102570003D4611E029463046FFF747FDB24607E0E9
:1025800019F8010BFFF753FD0AF1010000F0FF0AF3
:10259000C245F5DD681CC5B2A542EBDDBDE8F0879C
:1025A0002DE9F04706460F4690461C46DDF8209080
:1025B000E11704EB5171C910B4EBC10106D12046FB
:1025C000E11704EB5171C1F3C70506E02046E1179E
:1025D00004EB5171C910491CCDB23D461CE029469F
:1025E0003046FFF712FDB24612E099F80000C01C19
:1025F000C0B289F80000802803DD0120FFF717FD35
:1026000002E00020FFF713FD0AF1010000F0FF0ACD
:10261000C245EADDA81CC5B2A542E0DDBDE8F087F1
:102620002DE9FC4107460E46144698460025002039
:1026300000900190F006060E42F21070B4FBF0F02C
:102640000A21B0FBF1F201FB12008DF800004FF4FB
:102650007A70B4FBF0F0B0FBF1F201FB12008DF8E0
:1026600001006420B4FBF0F0B0FBF1F201FB1200BA
:102670008DF802000A20B4FBF0F0B0FBF1F201FB90
:1026800012008DF803000A20B4FBF0F100FB1140AA
:102690008DF8040000BF07E01DF805003030C0B21F
:1026A0000DF80500681CC5B2052DF5DBC8F1050065
:1026B0006946421839463046FFF746FEBDE8FC81C0
:1026C0007CB506460D461446002000900190E806B1
:1026D000050E002C05DA2D208DF80000604204B2B2
:1026E00004E0002C02DB2B208DF800004FF47A7000
:1026F00094FBF0F00A2190FBF1F201FB1200303064
:10270000C0B28DF80100642094FBF0F090FBF1F270
:1027100001FB12003030C0B28DF802002E208DF87F
:1027200003000A2094FBF0F090FBF1F201FB120091
:102730003030C0B28DF804000A2094FBF0F100FBA9
:1027400011403030C0B28DF805006A463146284647
:10275000FFF7FAFD7CBDFEB504460E460020019051
:102760000290002E33D140F27620844200DC0446F1
:10277000A4F2762084B20A2094FBF0F084B2152CE7
:1027800000DD1524002509E0042105F10800194A9F
:102790001154202120301154681CC5B2152DF3DBD3
:1027A00000250AE0F420C5F11C01124A50542F20E4
:1027B000C5F13C015054681CC5B2A542F2DB0D487E
:1027C00001237F22002100906020FFF7B4FE012E3C
:1027D00030D100BF642094FBF0F00A2190FBF1F2AD
:1027E00001FB12003030C0B206E000004491000846
:1027F00069910008280700208DF804002E208DF82C
:1028000005000A2094FBF0F090FBF1F201FB1200AE
:102810003030C0B28DF806000A2094FBF0F100FBC6
:1028200011403030C0B28DF8070001AA00216020AD
:10283000FFF78AFDFEBD08B5454801231F22002190
:1028400000900846FFF777FE08BDF8B5064606F18A
:102850003F00C5B2002404E000203E490855601C3A
:10286000C4B2802CF8DB7C203A4948557C21394A97
:10287000681C1154104603237F220221009000207F
:10288000FFF759FEF8BD2DE9FC5F82460C469146E4
:10289000E01001902046E11704EB5171C910A4EB40
:1028A000C10189B20091002625E0F1B20020FFF7B6
:1028B000ACFB4FF6FF7000EAC60B002717E00025BF
:1028C000A8460CE06D100BEB080000FB09A0C05DF2
:1028D00008B945F0800508F101001FFA80F8B8F149
:1028E000080FEFDB2846FFF7A2FB781C87B24F45A5
:1028F000E5DB701C86B201988642D6DBF1B200207F
:10290000FFF783FB4FF6FF7000EAC60B00271BE0C2
:102910000025A8460CE06D100BEB080000FB09A099
:10292000C05D08B945F0800508F101001FFA80F884
:1029300000988045EFDB0098C0F10800054128466B
:10294000FFF775FB781C87B24F45E1DBBDE8FC9FC4
:10295000680700202806002010B566480078401C53
:10296000C0B2644908700A2834DB00F0B9FA00F0FC
:1029700064FA614908800846008840F2EE218842E6
:1029800003DC5D480088642800DA10BD5B4840889D
:10299000642815DD5948408857490988081A0028D5
:1029A00005DD5648408854490988081A05E053480F
:1029B0004088514909884942081A092800DDE4E79E
:1029C0004D4800884D49488001204D49087000203D
:1029D0004849087000BFD8E710B54A480078401C45
:1029E000C0B2484908700A2875DBFFF7B5FF4448B4
:1029F0000078012879D12C2040490988C82919DBA1
:102A00003E490988B1F5967F14DA3C494A8809881D
:102A10002C398A4207DD01213B4A11604FF0000149
:102A20003A4A117006E00021374A11604FF0010167
:102A3000364A117031490988B1F5967F19DB2F4963
:102A40000988B1F5C87F14DA2C494A8809881F39EA
:102A50008A4207DD01212C4A11604FF000012B4A08
:102A6000117006E00021284A11604FF00101274A49
:102A7000117022490988B1F5C87F19DB1F490988FF
:102A8000B1F5167F14DA1D494A88098812398A423D
:102A900007DD01211C4A11604FF000011B4A117033
:102AA00006E00021184A11604FF00101174A117029
:102AB00012490988B1F5167F16DB10494A88098842
:102AC0000B398A4209DD01210F4A11604FF00001E4
:102AD0000E4A117008E00CE007E000210A4A11607C
:102AE0004FF00101094A117000BF4FF00000054985
:102AF000087010BDB0070020B2070020AA07002010
:102B0000AE070020AF070020B4812142B4070020A7
:102B100010B500F0A1FB10BD10B5164800780128D3
:102B200023D115480068012805D114480068401CCD
:102B30001249086004E011480068401E0F4908600F
:102B40000E4800688C2802DD00200B4908600B4805
:102B50000068002802DC0120074908600748008857
:102B600081B20748FFF7A0F903E08B210448FFF783
:102B70009BF910BDB4070020B8070020BC07002057
:102B80000008004010B56FF00400FDF72BFC2D4845
:102B900000682D49B0FBF1F02C4908700846007818
:102BA00000EB4001C1EBC0104FF6FF7101EAC0001D
:102BB0002749088010BD0146244A12784A434FF045
:102BC000E0235A6100229A611A46126942F001021A
:102BD0001A6100BF4FF0E022106910F0010F02D01F
:102BE00010F4803FF6D04FF0E022126922F001028B
:102BF0004FF0E0231A6100229A6170470146144A9F
:102C000012884A434FF0E0235A6100229A611A4623
:102C1000126942F001021A6100BF4FF0E022106910
:102C200010F0010F02D010F4803FF6D04FF0E022F8
:102C3000126922F001024FF0E0231A6100229A612A
:102C4000704700000000002000127A00C00700203A
:102C5000C2070020002105E00A2100BF0A00A1F1FF
:102C60000101FBD10200A0F10100F5D1704700B5D0
:102C70009348006820F00F009149086008460068FA
:102C800040F06000086000208E49086040F2EE20AD
:102C9000FFF7E0FF01208C49C1F894010F20FFF7F6
:102CA000D9FF00BD10B500248548006820F00F0052
:102CB000834908600846006840F48070086004E0BA
:102CC000601CC4B20120FFF7C5FF8048006808B14E
:102CD000C82CF5DBC82C01DB012010BD002404E06A
:102CE000601CC4B20120FFF7B5FF7848006808B93E
:102CF000F02CF5DBF02C01DB0120EEE70020ECE707
:102D000010B56F48006820F00F006D490860084654
:102D1000006840F06000086000206A4908604FF0D9
:102D20000200FFF797FF01206749C1F8940164484A
:102D3000006820F00F00624908600846006840F40F
:102D4000807008600C20FFF785FF6048006808B1BC
:102D5000012400E000243220FFF77CFF204610BD54
:102D600070B50026012508E0FFF7CAFF0446E00120
:102D700040EA6600C6B2681CC5B2082DF4DD3046D4
:102D800070BD70B504464E48006820F00F004C49F5
:102D900008600846006840F060000860012522E0F5
:102DA00004F00106641076B10020464908604FF037
:102DB0000200FFF74FFF01204349C1F894013C2076
:102DC000FFF748FF0DE000203E4908604FF03C004F
:102DD000FFF740FF01203C49C1F894010220FFF7B2
:102DE00039FF681CC5B2082DDADD70BD00B5FFF7EC
:102DF0003EFFFFF757FFCC20FFF7C3FF4420FFF74C
:102E0000C0FF00BD08B501210820FEF71DF92020F4
:102E1000ADF8000010208DF8030003208DF80200AB
:102E200069462748FDF73AFE20212548FDF7E1FED7
:102E3000FFF71DFFFFF736FF08BD2DE9F84FFFF73D
:102E4000D5FFFFF714FFFFF72DFFCC20FFF799FF09
:102E5000BE20FFF796FFFFF783FF8346FFF780FF53
:102E60008146B9F1070F0ADD6FEA090000F0FF099A
:102E70006FEA0B0000F0FF0B4FF0000A01E04FF08B
:102E8000010A4C46200204B204EB0B0004B22046B7
:102E900005F0DCF9009005F01FFA074600220C4B04
:102EA00005F0F3F8054605F0F8F904B2BAF1000FA1
:102EB00000D001E0604204B22046BDE8F88F000077
:102EC000000C014094812142008021421481214262
:102ED0000000E43F01461E4B1B685A1810687047FB
:102EE00010B5FDF7BCFA3420FDF754FD1848006812
:102EF000FDF7FAFA174908700846007804281FD130
:102F00001548018812480068FDF7BEFB114908709A
:102F100012490F480068001DFDF7B6FB0D49087007
:102F20000E490B4800680830FDF7AEFB09490870F0
:102F30000A49074800680C30FDF7A6FB05490870F0
:102F400010BD00B50020FFF7C5FF0349088000BD94
:102F5000C4070020C8070020AA0700207F5634E2DB
:102F600010B545F25550FDF7E5FE0320FDF7E5FEEF
:102F700040F2E730FDF7E4FEFDF7E5FEFDF7E8FE81
:102F800010BD000008B501210420FEF75DF8032004
:102F90008DF8020048208DF803004FF4C860ADF8AA
:102FA000000069465448FDF779FD08BD08B5402189
:102FB0005148FDF704FE08B9012000E000208DF81B
:102FC00001004FF400714C48FDF7F9FD08B90120EC
:102FD00000E000208DF800004FF480614648FDF7C6
:102FE000EEFD08B9012000E000208DF80200BDF8D8
:102FF000001008469DF8021040EA014008BD38B5AF
:1030000000240325FFF7D2FF00909DF800003B4904
:1030100088709DF80110394881729DF80210817402
:1030200000BF3EE0354800EBC400807801280DD198
:10303000324810F83400401CC0B2304901F8340066
:10304000322807DB322001F8340003E000202B494E
:1030500001F83400294810F83400022804D1274927
:1030600001EBC40148688047244810F834002E283A
:1030700015DB224800EBC4004078401CC0B21F4959
:1030800001EBC40148700A2809DB1C4901EBC401AB
:10309000486880470020194901EBC4014870601C52
:1030A000C4B2AC42BEDB38BD154800880A301449B2
:1030B00008800846008840F2EE21884202DB08467C
:1030C0000F49088070470E4800880A380C4908806C
:1030D00008460088502801DC5020088070470848C6
:1030E00000880A380649088008460088642801DC00
:1030F000642008807047000000080140CC070020D1
:10310000AA07002008B501210220FDF7AAFF01212E
:103110000C20FDF799FFC020ADF8000018208DF8B5
:10312000030003208DF802006946A148FDF7B6FCB4
:1031300040219F48FDF75FFD0320ADF80000694680
:103140009C48FDF7ABFC08BD10B588B0002440F2E8
:10315000E730ADF818004720ADF814000020ADF8B6
:103160001A00ADF8160005A99348FEF7A9F86020EB
:10317000ADF804000120ADF80600ADF80A400020CB
:10318000ADF80C0001A98C48FEF7D7F808218A4851
:10319000FEF722FD01218848FEF7EEFB08B010BDC6
:1031A00010B5FFF7AFFFFFF7CFFF10BD08B5012146
:1031B0000820FDF749FF01210420FDF752FF4020C0
:1031C000ADF8000018208DF8030003208DF80200F0
:1031D00069467848FDF762FC08BD10B588B0322416
:1031E0008C20ADF818000020ADF81400ADF81A00DE
:1031F000ADF8160005A97148FEF762F8002201211A
:103200006E48FEF7D4FB1E208DF8000001208DF8DB
:10321000010003208DF8020001208DF803006846AC
:10322000FDF795F86020ADF804000120ADF8060028
:103230006F20ADF80A000020ADF80C0001A95F482E
:10324000FEF77BF808215D48FEF7C6FC01215B48CC
:10325000FEF792FB08B010BD10B5FFF7A7FFFFF710
:10326000BCFF10BD08B501210420FDF7EDFE0121D2
:10327000C802FDF7E9FE4FF47060ADF800001820B9
:103280008DF8030003208DF8020069464848FDF7D9
:1032900005FC08BD10B588B04FF4FA7440F2E73071
:1032A000ADF818004720ADF814000020ADF81A0062
:1032B000ADF8160005A94248FEF702F86020ADF807
:1032C00004000120ADF80600ADF80A400020ADF87A
:1032D0000C0001A93A48FEF70AF908213848FEF720
:1032E0009AFC01213648FEF747FB08B010BD10B527
:1032F000FFF7B8FFFFF7CEFF10BD08B5012104208E
:10330000FDF7A2FE01210846FDF7ABFE0320ADF854
:10331000000018208DF8030003208DF80200694694
:103320002348FDF7BBFB08BD30B587B0002500245E
:103330006320ADF814004720ADF810000020ADF870
:103340001600ADF8120004A94FF08040FDF7B8FF59
:103350006020ADF800000120ADF80200ADF8065085
:103360000020ADF8080069464FF08040FEF727F8CE
:103370000821C806FEF739FCADF8064069464FF053
:103380008040FDF7DAFF0821C806FEF725FC012181
:103390008807FEF7F1FB01218807FEF7EDFA07B079
:1033A00030BD10B5FFF7A9FFFFF7BEFF10BD00004D
:1033B00000080140000C01400004004000080040EB
:1033C000002C014008B501210820FDF73DFE42F226
:1033D0000800ADF8000010208DF8030003208DF8E0
:1033E000020069460548FDF759FB012004490860C1
:1033F0000449C1F88C010449086008BD000C014073
:10340000B4812142008021429081214208B50121EE
:103410001020FDF719FE4FF48040ADF80000102099
:103420008DF8030003208DF802006946E148FDF79E
:1034300035FB4FF48041DF48FDF7DDFB08BD10B5DB
:1034400064240DE0DC48006808B9012000E0002099
:10345000D94908604FF01400FFF7D0FB601EC4B2DA
:10346000002CEFDC64240DE0D348006808B901208B
:1034700000E00020D04908604FF00F00FFF7BEFBCE
:10348000601EC4B2002CEFDC64240DE0CA48006862
:1034900008B9012000E00020C74908604FF00A0089
:1034A000FFF7ACFB601EC4B2002CEFDC64240DE01F
:1034B000C148006808B9012000E00020BE4908604A
:1034C0004FF00500FFF79AFB601EC4B2002CEFDC42
:1034D0004FF48041B748FDF78EFB10BD10B5642452
:1034E0000DE0B548006808B9012000E00020B249AD
:1034F00008604FF00600FFF781FB601EC4B2002C8D
:10350000EFDC64240DE0AC48006808B9012000E05D
:103510000020A94908604FF00C00FFF76FFB601E08
:10352000C4B2002CEFDC64240DE0A348006808B9A5
:10353000012000E00020A04908604FF00600FFF7DE
:103540005DFB601EC4B2002CEFDC4FF48041994853
:10355000FDF751FB10BD10B564240DE096480068DE
:1035600008B9012000E00020934908604FF01400E2
:10357000FFF744FB601EC4B2002CEFDC64240DE0B6
:103580008D48006808B9012000E000208A490860E1
:103590004FF00600FFF732FB601EC4B2002CEFDCD8
:1035A00064240DE08448006808B9012000E0002090
:1035B000814908604FF00F00FFF720FB601EC4B286
:1035C000002CEFDC4FF480417A48FDF714FB10BD6E
:1035D00010B532240DE07848006808B9012000E0F9
:1035E0000020754908604FF00500FFF707FB601EDB
:1035F000C4B2002CEFDC32240DE06F48006808B93B
:10360000012000E000206C4908604FF00A00FFF73D
:10361000F5FA601EC4B2002CEFDC32240DE06648DF
:10362000006808B9012000E00020634908604FF0FD
:103630000F00FFF7E3FA601EC4B2002CEFDC4FF47A
:1036400080415C48FDF7D7FA10BD10B532240DE07B
:103650005948006808B9012000E000205649086078
:103660004FF00F00FFF7CAFA601EC4B2002CEFDC67
:1036700032240DE05048006808B9012000E0002025
:103680004D4908604FF00A00FFF7B8FA601EC4B257
:10369000002CEFDC32240DE04748006808B9012017
:1036A00000E00020444908604FF00500FFF7A6FA4B
:1036B000601EC4B2002CEFDC4FF480413D48FDF7A2
:1036C0009AFA10BD10B564240DE03B48006808B9B3
:1036D000012000E00020384908604FF01400FFF797
:1036E0008DFA601EC4B2002CEFDC50240DE032488D
:1036F000006808B9012000E000202F4908604FF061
:103700001E00FFF77BFA601EC4B2002CEFDC4FF402
:1037100080412848FDF76FFA10BD10B5C8240DE0B0
:103720002548006808B9012000E00020224908600F
:103730004FF00A00FFF762FA601E84B2002CEFDC43
:103740004FF480411B48FDF756FA1420FFF756FA54
:10375000C8240DE01848006808B9012000E00020E6
:10376000154908604FF00A00FFF748FA601E84B25E
:10377000002CEFDC4FF480410E48FDF73CFA14209A
:10378000FFF73CFAC8240DE00B48006808B9012097
:1037900000E00020084908604FF00A00FFF72EFA09
:1037A000601E84B2002CEFDC4FF480410148FDF72D
:1037B00022FA10BD00100140B80122420EB50AE005
:1037C000FFF70AF902A8002108230A46CDE90010F4
:1037D000084603F010F8F3E70EB5FEF77EFC4FE065
:1037E0005849088804F04CFD07460022564B04F067
:1037F000BEFC054604F083FD82465448816850466D
:103800008847814651484946426951A0904704463D
:10381000224600210846FEF797FD4A49488804F0F1
:103820002FFD07460022484B04F0A1FC054604F09A
:1038300066FD824645488168504688478146434830
:103840004946426945A0904704462246022100208D
:10385000FEF77AFD4448007808B144A000E046A095
:10386000024606210020FEF76FFDFDF76CFA02A864
:1038700000210A230A46CDE90010084602F0BBFFEA
:10388000AEE70EB50CE0FFF747F9FFF7B8FB02A86B
:10389000002109230A46CDE90010084602F0ABFFDB
:1038A000F1E710B58AB0044609A803210022059269
:1038B000CDE906210890104650210822314BCDE970
:1038C0000132CDE9031004200023AFF249022EA1FA
:1038D00000902F4801F054FD09A803210022059211
:1038E000CDE906210890104650210822294BCDE948
:1038F0000132CDE9031005200023AFF2231226A1E7
:103900000090274801F03CFD09A803210022059200
:10391000CDE906210890104650210822214BCDE91F
:103920000132CDE9031006200023AFF26F121EA171
:1039300000901F4801F024FD09A91E4801F04BFE2C
:103940000AB010BDAA070020000024405C08002037
:1039500053657454656D703A000000004E6F7754E3
:10396000656D703A00000000B4070020486561747E
:103970003A4F6E2000000000486561743A4F666659
:1039800000000000D80A00204C454431000000002F
:10399000600A0020900C00204C45443200000000DA
:1039A000180C0020480E00204C4544330000000055
:1039B000D00D0020A808002030B50146B1F1807F6D
:1039C00001D3012030BD21F07F40401E4FF0E022A6
:1039D000506150170F22002807DA13071D0E3E4BC7
:1039E00000F00F04241F1D5503E013071C0E3B4B72
:1039F0001C5400BF00204FF0E022906107201061AE
:103A00000020DFE710B5364800684FF47A71B0FB4C
:103A1000F1F42046FFF7D0FF314800684FF47A7187
:103A2000B0FBF1F42046FFF7C7FF08B100BFFEE787
:103A300010BD10B5FDF79EF94FF48030FDF7BAF9CF
:103A4000FDF7F7F90446012C24D10020FDF737FAE1
:103A50000020FDF746FAA002FDF73AFA0220FCF733
:103A6000DFFC1020FCF7F0FC4FF4E0112004FDF720
:103A700009FA0120FDF712FA00BF3920FDF7BDF960
:103A80000028FAD00220FDF70CFA00BFFDF712FA69
:103A90000828FBD110BD10B5FFF7CBFF00F024F8CC
:103AA000FFF770F8FFF74DFAFFF732F8FFF78AFCDF
:103AB000FFF768FA02E001200A490870FFF7A2F94F
:103AC0000028F8D107490870FFF7A0FCFFF748FA73
:103AD000FFF798FF10BD000018ED00E000E400E0E3
:103AE00000000020E707002008B501211820FDF79D
:103AF000ABFA4020ADF8000010208DF80300032041
:103B00008DF8020069460748FCF7C8FF1820ADF899
:103B1000000069460448FCF7C1FF18210248FDF780
:103B200068F808BD000C0140001001400F48104823
:103B300010481148114812481248134813481448B5
:103B40001448154815481648164817481748184885
:103B50001848194819481A481A481B481B481C4855
:103B60001C481D481D481E4800BF7047F4990008B6
:103B700054990008589900085C9900086099000859
:103B800064990008689900086C9900087099000809
:103B900074990008789900087C99000880990008B9
:103BA0008499000888990008989900089C99000851
:103BB000A0990008A4990008A8990008AC990008E9
:103BC000B0990008B4990008B8990008BC99000899
:103BD000C0990008C4990008C8990008CC99000849
:103BE000D0990008002400BF19E000BF00BF03F017
:103BF000DBF8044600BF00BFFD480068401CFC49DC
:103C00000860FC480068401CFA49086000BF00BF1B
:103C1000204603F0CDF800BF00BF03F049F8E4E709
:103C200010B58AB004460020F14908600320002145
:103C30000591CDE9070406910846EF490968EF4A66
:103C40001268EF4B1B68CDE90132CDE90310072064
:103C50000023AFF26F02EBA10090EF4801F090FB60
:103C60000AB010BD00210AE001EB4102EB4B03EB6F
:103C7000820000220281026042604A1CD1B20829FF
:103C8000F2D3704770B5044603F013F80020E449FE
:103C90000870E4490870E4490870E4490870E44891
:103CA00000680A21B0FBF1F0E2490860E2480068D0
:103CB00058B1E248056845B1DF48066803E0761E62
:103CC000002028602D1D002EF9D101F05DF9FFF7CD
:103CD000C9FF204602F080FA208800B170BD20465E
:103CE00000F076FF208800B1F8E72046FFF798FF44
:103CF000208800B1F2E7204602F0BCFB208800B12A
:103D0000ECE7204601F077FA208800B1E6E720468C
:103D100001F026F9208800B1E0E700F0B5FDFFF7DB
:103D200005FF00BFDAE7BF480078012800D07047E0
:103D3000BB480078FA2800DBF9E7B9480078401C56
:103D4000B749087000BFF2E710B50024B548007805
:103D5000012800D010BD00BF03F026F8044600BFC4
:103D6000AF48007828B900BF204603F021F800BF13
:103D7000F0E7AB480078401EA94908700846007873
:103D8000002805DD00BF204603F012F800BFE1E780
:103D9000A5480078002805DD00BF204603F008F89C
:103DA00000BFD7E701F0FAF8A54908700846007887
:103DB00000EB4000994951F82000A24908600846EC
:103DC0000068A1490968884205D100BF204602F079
:103DD000EFFF00BFBEE79D480068401C9B4908609C
:103DE0004FF080509A49086000BF204602F0E0FF83
:103DF00000BF00BFAEE710B5002489480078002856
:103E000000DD10BD88480078002800DDF9E700BF1C
:103E100002F0CAFF044600BF01F0C0F888490870EC
:103E20000846007800EB40007C4951F820008549A5
:103E300008600846006884490968884205D100BFC7
:103E4000204602F0B5FF00BFDBE780480068401C59
:103E50007E4908604FF080507D49086000BF2046D1
:103E600002F0A6FF00BF00BFCBE770B504460025F7
:103E70006B480078002803DD46F66250208070BD54
:103E800068480078012803D045F689602080F6E76D
:103E900065480078FA2803DB45F209202080EEE728
:103EA00000BF00BF02F080FF054600BF00BF5E48B4
:103EB0000078401C5C49087000BF00BF284602F033
:103EC00077FF00BF00BF0020208000BFD7E770B59C
:103ED0000446002552480078002803DD46F6655068
:103EE000208070BD4F480078012803D045F68960D6
:103EF0002080F6E74C48007818B946F664502080D8
:103F0000EFE700BF00BF02F04FFF054600BF00BF54
:103F100045480078401E444908700846007800284B
:103F20000ADD00BF00BF284602F042FF00BF00BF0D
:103F300046F663502080D4E700BF00BF284602F059
:103F400037FF00BF00BFFFF756FF0020208000BFF3
:103F5000C7E72DE9F04105460C461646002700BF8D
:103F600000BF02F021FF074600BF00BF012D03D0B4
:103F700000202E49087002E001202C49087014B17D
:103F80002C48046006E02A4800680A21B0FBF1F0E2
:103F90002849086000BF00BF384602F009FF00BF93
:103FA00000BF00203080BDE8F08110B501460C89CB
:103FB00024B1012C03D0022C0CD101E000BF14E08D
:103FC00008684A6802610024C4601461D0600A6015
:103FD00048600AE008684A68C36800241C61C4603D
:103FE0000261D0600B60486000BF00BF10BD0000E0
:103FF000EC070020240800205C990008589900086C
:104000005499000875432F4F532D4949492049645D
:104010006C65205461736B00301B0020201C002055
:10402000F0070020F10700201B08002020080020D6
:10403000B49900081C0800208499000880990008A1
:104040001908002054080020500800203C080020D7
:1040500004ED00E02DE9F04104460027F648007821
:10406000002804DD48F2D1402080BDE8F081F3480B
:104070000078002803DD46F663502080F5E7F0481D
:104080000078012803D046F67B102080EDE700BFC2
:1040900000BF02F089FE074600BF00BFE948007874
:1040A00000EB4000E84901EB8006308902280ADA7B
:1040B00000BF00BF384602F07BFE00BF00BF46F6DF
:1040C0007A102080D1E73046FFF76FFF3568686DC2
:1040D00018B9DE480068A86501E0686DA86500BFF2
:1040E00000BF384602F064FE00BF00BFFFF783FE4A
:1040F0000020208000BFB8E710B50446D4480078FF
:10410000E8B900F04BFFD349087008460078CD4964
:104110000870D048007800EB4000CB4951F82000EF
:10412000CD49086008460068CC4908600120C849AC
:10413000087002F07BFD43F69920208002E045F6EE
:104140008A60208010BD01460020088047F2F850A8
:10415000704730B540B145684D6700F108042268EA
:1041600093681D6AC56110E091F83450022D02D0A9
:10417000072D06D102E0BAA54D6705E0BAA54D6747
:1041800002E0BCA54D6700BF00BF30BDF0B58E6832
:1041900096F8375007893FB90127078100274F60FC
:1041A0000F600160416023E007897F1C078102687E
:1041B00006E0946894F83770AF4200DD02E0526880
:1041C000002AF6D100BF32B900274F6043680B6068
:1041D000596041600CE017682FB9116000270F602B
:1041E0004A60016004E013680B604A605960116026
:1041F000F0BD10B5C287016300230AE000244C60C3
:104200000C600C614C610C83CC61886020315C1CBB
:10421000A3B29342F2DB10BD2DE9F041054695F8BB
:10422000370000EB4000884901EB80042F69EE68FD
:1042300087B946B9002020812060606095F837007A
:1042400000F0CEFE0EE02089401E2081002030616B
:10425000266007E02089401E2081FE600EB967605D
:1042600000E0376100202861E860BDE8F08138B5E2
:1042700004460D4685B16B4602222946204602F0CF
:1042800028F9BDF8000018B9032084F8360006E0CC
:10429000022084F8360002E0022084F8360020462E
:1042A000FFF7BAFF38BD2DE9F04105460C4616462A
:1042B0001F466A48006880F8346000206749096832
:1042C00081F83500394665480068FFF7D0FF6CB1CA
:1042D00004F10808EC600122294660480068FFF7F5
:1042E00088FF29464046FFF751FF06E000205B4962
:1042F0000968C88759490968086358480168204611
:10430000FFF727FFBDE8F08110B50489012C03D128
:1043100000240460446011E00C6824B94A68002459
:10432000146002600AE04C6824B90B6800245C60E9
:10433000436003E00B684A685A6013600489641E96
:10434000048100244C600C6010BD2DE9F04104464E
:10435000256BE68F0AE0D5F80C8008F1080729469E
:104360003846FFF7D1FF2035701E86B2002EF2DCF2
:104370000020E0872063BDE8F08130B50346086B7C
:10438000CC8F08E0C5689D4202D10361C26104E0A0
:104390002030651EACB2002CF4DC00BF30BD10B57F
:1043A00090F8373003EB4303274C04EB83010B8970
:1043B0003BB901230B810023C3600361086048609F
:1043C00009E00B895B1C0B810B68C3600023036150
:1043D0000A681061086010BD10B590F8373003EB23
:1043E0004303194C04EB83010B893BB901230B8177
:1043F0000023C36003610860486008E00B895B1C10
:104400000B810023C3604A680261D060486010BD20
:1044100010B5044694F8370000F0D2FD94F8370048
:1044200008490978884203D12046FFF7D5FF02E00A
:104430002046FFF7B4FF10BDF00700201B08002046
:104440002008002018080020201C00201C08002044
:10445000F10700201908002054080020500800200F
:104460005461736B205100005461736B2053656D70
:10447000000000002000000010B50446204601F0B6
:10448000D1FE94F8360010F0040F02D12046FFF759
:10449000BFFF10BD70B505460C46164694F83600B1
:1044A000082845D2DFE800F004050809060726279A
:1044B00000BF00BF00BF3CE000BF94F834000328F9
:1044C00004D1324621462846FFF757FF266415B12E
:1044D0002046FFF73AFF2046FFF7CEFF002004F109
:1044E0003404A0704FF0010060704FF0000004F839
:1044F00034091EE000BF94F83400032804D132468A
:1045000021462846FFF739FF266415B12046FFF7FC
:104510001CFF204601F086FE042004F13404A07044
:104520004FF0010060704FF0000004F8340900E023
:1045300000BF00BF70BD30B5AFF2C8054D6700F1D8
:10454000080422681AB193681D6AC56102E0AFF2DF
:10455000DC05C56130BD2DE9F04304460F4684F803
:104560003770256BB4F83E8013E0D5F80C9009F154
:1045700008063089012807D929463046FFF7C4FECE
:1045800029463046FFF702FE2035A8F101001FFA48
:1045900080F8B8F1000FE8D1BDE8F0830021016098
:1045A00041600181704703895B1C038103684B6094
:1045B00000230B60026802B1116001600389012BC6
:1045C00000D14160704730B50346086BCC8F08E0DE
:1045D000C5689D4202D10361C26104E02030651EBE
:1045E000ACB2002CF4DC00BF30BD70B506460C4602
:1045F000154694F83600082843D2DFE800F0040599
:1046000008090607252600BF00BF00BF3AE000BF2B
:1046100094F83400032804D12A4621463046FFF797
:10462000D2FF25642046FFF790FE2046FFF724FFC7
:10463000002004F13404A0704FF0020060704FF0CD
:10464000000004F834091DE000BF94F8340003288A
:1046500004D12A4621463046FFF7B5FF256420469F
:1046600001F0E0FD2046FFF770FE042004F1340461
:10467000A0704FF0020060704FF0000004F83409A1
:1046800000E000BF00BF70BDF0B50446059E086B9A
:10469000CD8F0AE0C768A74204D104614261038359
:1046A000C66104E020306F1EBDB2002DF2DC00BFF9
:1046B000F0BD2DE9F84306460C4617469846089D7E
:1046C00094F8360008284DD2DFE800F00405080908
:1046D0000607292A00BF00BF00BF44E000BF94F8CE
:1046E0003400032807D143463A4621463046009518
:1046F000FFF7CAFF00E0256436B12046FFF725FE2C
:1047000021463046FFF717FF2046FFF7B5FE002091
:1047100004F13404A070607004F8340923E000BF91
:1047200094F83400032807D143463A4621463046E0
:104730000095FFF7A9FF00E02564204601F072FD17
:1047400036B12046FFF701FE21463046FFF7F3FE63
:10475000042004F13404A0704FF00000607004F8ED
:10476000340900E000BF00BFBDE8F88310B50024A5
:1047700000BF02F019FB044600BF00203949087051
:1047800039483A4908603A480068401C384908608E
:104790004FF080503749086000BF204602F008FB08
:1047A00000BF10BD70B505460026334800780128CB
:1047B00000D070BD00BF00BF02F0F6FA064600BF91
:1047C00000BF2C683CB900BF00BF304602F0F0FAD1
:1047D00000BF00BFEDE72948844207D100BF00BFFA
:1047E000304602F0E5FA00BF00BFE2E7A06D10B16D
:1047F000A06D401EA065A06D38B100BF00BF30465F
:1048000002F0D6FA00BF00BFD3E72889022807DAF2
:1048100000BF00BF304602F0CBFA00BF00BFC8E7C0
:1048200017480078002807DD00BF00BF304602F0BF
:10483000BFFA00BF00BFBCE72846FFF7B6FB2C68F5
:10484000606D18B90F480068A06501E0606DA06553
:1048500000BF00BF304602F0ABFA00BF00BF00BF90
:10486000A7E7000019080020A81B0020540800201A
:104870003C08002004ED00E020080020301B002050
:104880001B0800201C08002019481A481A481B4819
:104890001B481C481C481D481D481E481E481F48F0
:1048A0001F482048204821482148224822482348C0
:1048B0002348244824482548254826482648274890
:1048C000274828482848294829482A482A482B4860
:1048D0002B482C482C482D482D482E482E482F4830
:1048E0002F48304830483148314800BF70470000F9
:1048F000F8990008609B0008FA990008FB990008E5
:10490000FC990008009A0008049A0008019A00081F
:10491000349A0008369A0008389A0008589A000815
:104920005A9A00085C9A0008649A0008909A000855
:10493000969A0008979A0008989A00089A9A000890
:104940009C9A00089E9A0008A09A0008A29A000863
:10495000A49A0008D49A0008DA9A0008DC9A0008A1
:10496000049B00080A9B00080C9B0008109B000891
:10497000119B0008129B0008139B0008149B000861
:10498000159B0008169B0008179B0008189B000841
:104990001A9B00081B9B00081C9B00081E9B00081C
:1049A000209B0008219B0008249B0008589B0008BE
:1049B0005E9B00082DE9F84F04460D4616461F463B
:1049C000DDE90BABDDF82890DDF8348000200090A5
:1049D00000BF00BF02F0E8F9009000BF00BFB04880
:1049E0000088B049098888423BDAAD480088401CFD
:1049F000AB490880AC4800880988884203DAA84897
:104A00000088A9490880A94800680460A748006890
:104A10008560A6480068C660A44800680782A3486D
:104A20000068C0F81490A1480068A0F818A09F483A
:104A30000068C0F81CB09D48006840689B49086049
:104A400001209B4908819B4808604860002000F0D5
:104A5000B7FA99480078994908700020A8F8000032
:104A600008E097480088401C9549088044F253604C
:104A7000A8F8000000BF00BF009802F099F900BF3D
:104A800000BFBDE8F88F2DE9F84F4FF0000B00BFD5
:104A900000BF02F089F9834600BF00BF8948006863
:104AA000066888480068846886480068D0F80C80EA
:104AB00084480068B0F810A082480068D0F81490CC
:104AC00080480068078B7F480068C5697D4800689A
:104AD00040687C49086000BF00BF584602F068F992
:104AE00000BF00BF7849701A8E4214D009DC7748A5
:104AF00030180FD0764940180AD07649401822D194
:104B00000AE0754940180ED0744940181BD100E0E6
:104B10001AE019E018E017E06B462A4639462046AD
:104B200001F008F810E06549097801EB4101604A9D
:104B300002EB8100FFF736FE6B462A4600216848EB
:104B400000F0F8FF00E000BF00BFBDE8F88F0027CD
:104B500000BF3CE0002638E051480088C0B900BFE3
:104B600000BF02F021F9074600BF00BF00205049F6
:104B700008810860486000F033FA00BF00BF384683
:104B800002F016F900BF00BFFFF735F901261CE05F
:104B90000025FFF778FF6C4252480068844201D933
:104BA0005048046000BF00BF02F0FEF8074600BF97
:104BB00000BF3B480088401E3949088000BF00BF45
:104BC000384602F0F5F800BF00BF002EC4D0C1E7A0
:104BD000F0B589B005460020394908804248006890
:104BE00020B944F25260288009B0F0BD2D480088F9
:104BF000022803DA44F254602880F5E7002039499E
:104C00000860394804682646203600270CE03748FB
:104C100020600020A060E0602082606120836660E8
:104C200020342036781C87B21E4800888742EEDB8D
:104C3000203C2D48066866601C48066021480660D6
:104C4000002017490880184908802948006818B9C9
:104C500046F62C602880C7E7264800682649096880
:104C6000884203D246F62D602880BDE7032000214C
:104C70000591CDE9070506911E4800681F4A126894
:104C80001B4B1B68CDE90301CDE9013200910B46B6
:104C9000AFF245121AA1074800F072FB00BFA3E76C
:104CA000FC07002068990008FE070020F407002098
:104CB000201C0020A81B0020180800201A08002033
:104CC00000080020F8070020544D5347ADBAB2BE8B
:104CD0000DF90BFAF2F8F7FF000410FC03F4FDF5F0
:104CE000F81C002004080020649900084E4F4E452F
:104CF0007099000878990008B09900087499000824
:104D000075432F4F532D494949204953522051751E
:104D1000657565205461736B00000000002181619E
:104D20009349096811B90021C16105E090490968FA
:104D3000C1618F49096888618D49086070472DE914
:104D4000FF4F83B0044615461F46DDE9109600204C
:104D5000009088480078002805DD45F2B960308071
:104D600007B0BDE8F08F1DB945F2BB603080F7E7B2
:104D7000022F03DA45F2BC603080F1E7B9F1040F8D
:104D800003D245F2C1603080EAE74FF0030ABAF17E
:104D9000000F0CD015EA0A0F03D045F2BB6030803B
:104DA000DEE719EA0A0F02D045F2C1603080AB4657
:104DB000A846781E80B201900020029007E0C84407
:104DC000CBF80080C3460298401C80B20290DDE917
:104DD00001108842F3DB0020CBF8000000BF00BFC9
:104DE00000BF01F0E1FF009000BF00BF6248007803
:104DF000401C6149087000BF00BF009801F0D8FF57
:104E000000BF00BF00BF5D4820600498A0606560DF
:104E1000E560A7826782A4F810902046FFF77EFF26
:104E200057480088401C5649088000BF00BF00BF9B
:104E300001F0BAFF009000BF00BF4F480078401E4D
:104E40004D49087008460078A0B94E4800880028EF
:104E500009DD00BF00BF009801F0AAFF00BF00BF3E
:104E6000FFF784FC0DE000BF00BF009801F0A0FF39
:104E700000BF06E000BF00BF009801F099FF00BF2F
:104E800000BF00BF0020308000BF69E72DE9F0417E
:104E900004460D4600272CB945F2BF60288000204B
:104EA000BDE8F08100BF00BF01F07EFF074600BFF4
:104EB00000BFA08A58B900BF00BF384601F078FF94
:104EC00000BF00BF45F2C26028800020E8E7E66826
:104ED0003068E060A08A401EA08200BF00BF384654
:104EE00001F066FF00BF00BF002028803046D7E7F2
:104EF0002DE9F04104460E461546002724B945F237
:104F0000BF602880BDE8F0811EB945F2BE602880F0
:104F1000F8E700BF00BF01F047FF074600BF00BF32
:104F2000A08A618A88420ADB00BF00BF384601F0D0
:104F30003FFF00BF00BF45F2BA602880E2E7E068AB
:104F40003060E660A08A401CA08200BF00BF3846E7
:104F500001F02EFF00BF00BF0020288000BFD1E776
:104F60000021034A1160064A118001807047000049
:104F700008080020F00700201B0800204D454D20A8
:104F80000C080020FC070020002004E000211C4A3F
:104F900042F82010401C0028F8D0704770B500255A
:104FA000174C03E005F12000C5B2241D206800283D
:104FB000F8D0206801F0FFFE2844C5B2284670BD35
:104FC00030B5420900F01F030121C3F11F04A140C5
:104FD0000B4C54F822400C43094D45F8224030BD9B
:104FE00030B5420900F01F030121C3F11F04A140A5
:104FF000034C54F822408C43014D45F8224030BD0B
:10500000E807002070B50446002600209C4908608F
:105010009C4908809C4908609C4908609C48056838
:105020000EE000BF00BF01F0BFFE064600BF00BF9C
:105030002D6F00BF00BF304601F0BAFE00BF00BFB9
:10504000002DEED101F03FFB0020208070BDF8B5AF
:10505000044600266A460021022001F047FBBDF805
:10506000000018B1BDF800002080F8BD00BF00BFEF
:1050700001F09AFE064600BF00BF00208549086087
:1050800000BF00BF304601F093FE00BF00BF002507
:105090008148006881490968884205D97E480068CE
:1050A0007E490968B0FBF1F525B97B4800680A2103
:1050B000B0FBF1F56A460021284601F017FB00BF5E
:1050C00000BF01F071FE064600BF00BF00206E4920
:1050D00008607048006872490860012071490870D2
:1050E00000BF00BF304601F063FE00BF00BF0020DC
:1050F000208000BFB9E708B54FF0000800BF06E008
:105100006649096848006A46002101F0EFFA6548DF
:1051100000780128F4D16846FFF774FF00255E4847
:1051200000685E490968884205D95B4800685B49A8
:105130000968B0FBF1F525B9574800680A21B0FBB2
:10514000F1F557E0002700BF00BF01F02DFE8046BB
:1051500000BF00BF4F4800685349086000204D4918
:10516000086000BF00BF404601F022FE00BF00BF44
:105170004B4800684C490968884213D94848006880
:1051800060B1494800686421484345490968B0FB5B
:10519000F1F0C0F164004549087006E0642043491D
:1051A000087002E064204149087001F08CFD384825
:1051B000046807E06B4604F16402111D204600F00C
:1051C000B0FE246F002CF5D139480078012805D1B4
:1051D0000020374908706846FFF714FF7E422A48CE
:1051E0000068864201D9284806606A4600212846A0
:1051F00001F07CFAA6E710B58AB0044600202549E4
:10520000086029490860264908602649087028492D
:1052100008702848006820B946F62C6020800AB043
:1052200010BD2548006825490968884203D246F622
:105230002D602080F3E722480078072803D346F248
:1052400073202080EBE7032000210591CDE90704BE
:1052500006910846184909681A4A1268154B1B68D6
:10526000CDE90132CDE90310154800780023AFF2F3
:10527000791215A10090194800F082F800BFCEE71E
:1052800004080020FE070020340800204C080020FD
:105290004008002024080020B49900089C990008C8
:1052A00028080020300800202C08002021080020B9
:1052B00038080020A0990008A8990008B0990008B3
:1052C00098990008A499000875432F4F532D494918
:1052D000492053746174205461736B00801C00205A
:1052E0000021C166FE49096811B90021016705E086
:1052F000FB4909680167FA490968C866F849086006
:1053000070470022026082604260C26002614261B6
:105310008261C261F3A20262002242628262C262C0
:105320000263C2870264002106E0002300F15C02F0
:1053300042F821304A1CD1B20029F6D0002200F1F7
:1053400034000261426080F82C20426302630281D3
:105350004FF0004242614FF000028261C26102627E
:1053600042620270427082704FF00802C2704FF0C9
:1053700000028263C263DDA20264A0F134007047C0
:105380002DE9FF4F87B004469046DDE91BA5DDE916
:105390001496179F00200390D5480078002805DD5B
:1053A00047F24A1028800BB0BDE8F08F1CB947F2D5
:1053B000AD102880F7E7B8F1000F03D147F24F1086
:1053C0002880F0E71EB946F62C602880EBE7C94834
:1053D0000068874203D246F62D602880E3E71698DE
:1053E000B84203D346F62E602880DCE7B9F1080FF7
:1053F00003D346F273202880D5E7B9F1000F06D118
:10540000BD48844203D046F273202880CBE7B9F12F
:10541000070F06D1B948844203D046F27320288092
:10542000C1E72046FFF76DFF002028801AF0010F2A
:1054300011D01AF0020F0ED00596069008E0002158
:10544000059801600598001D05900698401C06907F
:105450000698B842F3D3169806EB80000490CDE985
:10546000007A32464046049B0A9901F030FC0590D0
:10547000C4F828800A98E0620898206284F837907F
:10548000059820600498A06019986065199818B96B
:105490009B480068A06501E01998A0651A986060B3
:1054A0006662A763A4F83CA04FF0000B08E000215F
:1054B00004F15C0040F82B100BF101001FFA80FB97
:1054C000BBF1000FF3D0204601F0FEFB00BF00BF90
:1054D00000BF01F069FC039000BF00BF894800785D
:1054E000401C8849087000BF00BF039801F060FCB1
:1054F00000BF00BF00BF94F83700FFF761FD2046F2
:10550000FEF76AFF2046FFF7EBFE7F480088401C4D
:105510007D4908807D48007801282DD000BF00BF5C
:1055200000BF01F041FC039000BF00BF7548007848
:10553000401E7449087008460078A0B97448008875
:10554000002809DD00BF00BF039801F031FC00BF57
:1055500000BFFFF70BF90DE000BF00BF039801F09B
:1055600027FC00BF06E000BF00BF039801F020FC4D
:1055700000BF00BF00BF16E700BF00BF00BF01F0C3
:1055800013FC039000BF00BF5E480078401E5D49D9
:10559000087000BF00BF039801F00AFC00BF00BF05
:1055A00000BFFEF728FC00BFFDE6C26E016F3AB9EE
:1055B0004B4B196009B10023CB660023036709E058
:1055C00019B900231367C36604E01167CA66002394
:1055D0000367C366704770B504460D46002644480D
:1055E0000078002803DD47F24E10288070BD434844
:1055F000844203D147F24C102880F7E73E488442AA
:1056000003D147F24D102880F0E77CB900BF00BFFE
:1056100001F0CAFB064600BF00BF3E48046800BF59
:1056200000BF304601F0C4FB00BF00BF00BF00BF99
:1056300000BF01F0B9FB064600BF00BF314800784B
:10564000401C3049087000BF00BF304601F0B0FB7D
:1056500000BF00BF00BF94F8360008282DD2DFE855
:1056600000F004090E10080A0F112046FEF7D4FDC1
:1056700072E071E000BF204600F0D4FD6CE000BF96
:1056800000BF00BF204600F0CDFD94F8340008288C
:1056900010D2DFE800F004070508090A0B0600BF76
:1056A00000BF08E000BF00BF00BF00BF2046FEF7FC
:1056B0004CFE00E000BF00BF4EE000BF00BF00BFD7
:1056C00001F072FB064600BF00BF0E480078401E86
:1056D0000C4908700846007888BB0D4800881BE01C
:1056E000400800203F5461736B0000002000000060
:1056F000F0070020B0990008A81B0020301B0020F4
:105700001C0800201B08002044080020F10700208E
:10571000FC07002050080020002809DD00BF00BF62
:10572000304601F045FB00BF00BFFFF71FF80EE059
:1057300000BF00BF304601F03BFB00BF07E0FFE7C2
:1057400000BF00BF304601F033FB00BF00BF00BF09
:1057500046F62A60288049E700BF204601F0B5FAE6
:105760002046FFF722FFFE480088401EFC490880C3
:105770002046FFF7C6FDFF2084F8360000BF00BFBB
:1057800000BF01F011FB064600BF00BFF5480078DE
:10579000401EF449087000BF00BF304601F008FB0E
:1057A00000BF00BF00BFFEF726FB0020288000BF1F
:1057B0001CE72DE9F04104460D4616464FF000085F
:1057C0002DB146F6791030800020BDE8F08100BF91
:1057D00000BF01F0E9FA804600BF00BF0CB9E24803
:1057E000046804F15C0050F8257000BF00BF40461B
:1057F00001F0DEFA00BF00BF002030803846E4E749
:105800002DE9F04104460D4617461E464FF00008AC
:1058100025B146F679103080BDE8F08100BF00BFA9
:1058200001F0C2FA804600BF00BF0CB9CE48046840
:1058300004F15C0040F8257000BF00BF404601F055
:10584000B7FA00BF00BF0020308000BFE4E770B5AA
:1058500004460D460026C5480078002803DD47F2BF
:105860005510288070BD00BF00BF01F09DFA0646AC
:1058700000BF00BF1CB1BC48006884420AD100BF11
:1058800000BF304601F094FA00BF00BF47F2571046
:105890002880E7E70020288094F8360008287BD28B
:1058A000DFE800F0040506071243556700BF00BF9C
:1058B00000BF00BF00BF304601F07AFA00BF00BF52
:1058C00047F25310288072E000BFA6480078401CC1
:1058D000A449087000BF00BF304601F069FA00BF5C
:1058E00000BF00BF14F8600F401E207014F860095C
:1058F00028B9002084F836002046FEF7BDFD00BF21
:1059000000BF00BF01F050FA064600BF00BF954837
:105910000078401E9349087000BF00BF304601F078
:1059200047FA00BF00BF00BF41E014F8600F401EFF
:10593000207014F8600910B9012084F8360000BF07
:1059400000BF304601F034FA00BF00BF2FE014F86A
:10595000600F401E207014F8600910B9022084F80E
:10596000360000BF00BF304601F022FA00BF00BF82
:105970001DE014F8600F401E207014F8600910B983
:10598000032084F8360000BF00BF304601F010FA53
:1059900000BF00BF0BE0FFE700BF00BF304601F0D3
:1059A00007FA00BF00BF46F62A6028805AE700BF0A
:1059B000FEF721FA00BF55E72DE9F0470746884674
:1059C00014461D464FF0000968480078002805DDA0
:1059D00046F2AE1028800020BDE8F0870CB1002010
:1059E000206000BF00BF01F0DFF9814600BF00BFAB
:1059F0005D480068406CC8B15B480068406C401E60
:105A000059490968486458480068466C1CB15648B2
:105A10000068006C206000BF00BF484601F0C8F974
:105A200000BF00BF002028803046D5E718F4004FA3
:105A30000BD000BF00BF484601F0BAF900BF00BF5D
:105A400046F2B01028800020C6E7464800780028BB
:105A50000BDD00BF00BF484601F0AAF900BF00BF40
:105A600046F6635028800020B6E700BF3D48007826
:105A7000401C3C49087000BF00BF484601F098F93F
:105A800000BF00BF00BF3B46072200210846FEF7CB
:105A90000AFC00BF00BF00BF01F086F9814600BFCD
:105AA00000BF30480078401E2E49087000BF00BF7C
:105AB000484601F07DF900BF00BF00BFFEF79BF92B
:105AC00000BF00BF01F070F9814600BF00BF26484B
:105AD000006890F8350020B101280AD0032818D1B9
